{
  "_format": "hh-sol-artifact-1",
  "contractName": "Records",
  "sourceName": "contracts/Records.sol",
  "abi": [
    {
      "anonymous": false,
      "inputs": [
        {
          "indexed": false,
          "internalType": "uint256",
          "name": "pId",
          "type": "uint256"
        },
        {
          "indexed": false,
          "internalType": "string",
          "name": "desc",
          "type": "string"
        },
        {
          "indexed": false,
          "internalType": "string",
          "name": "cid",
          "type": "string"
        }
      ],
      "name": "AddDescFile",
      "type": "event"
    },
    {
      "anonymous": false,
      "inputs": [
        {
          "indexed": false,
          "internalType": "address",
          "name": "recipient",
          "type": "address"
        },
        {
          "indexed": false,
          "internalType": "uint256",
          "name": "pId",
          "type": "uint256"
        }
      ],
      "name": "AddRecord",
      "type": "event"
    },
    {
      "inputs": [
        {
          "internalType": "string",
          "name": "name",
          "type": "string"
        },
        {
          "internalType": "string",
          "name": "dob",
          "type": "string"
        },
        {
          "internalType": "string",
          "name": "gender",
          "type": "string"
        },
        {
          "internalType": "string",
          "name": "ethAddres",
          "type": "string"
        },
        {
          "internalType": "string",
          "name": "cid",
          "type": "string"
        }
      ],
      "name": "addRecord",
      "outputs": [],
      "stateMutability": "nonpayable",
      "type": "function"
    },
    {
      "inputs": [],
      "name": "getRecordList",
      "outputs": [
        {
          "components": [
            {
              "internalType": "uint256",
              "name": "id",
              "type": "uint256"
            },
            {
              "internalType": "string",
              "name": "name",
              "type": "string"
            },
            {
              "internalType": "string",
              "name": "dob",
              "type": "string"
            },
            {
              "internalType": "string",
              "name": "gender",
              "type": "string"
            },
            {
              "internalType": "string",
              "name": "ethAddres",
              "type": "string"
            },
            {
              "internalType": "string",
              "name": "cid",
              "type": "string"
            }
          ],
          "internalType": "struct Records.Person[]",
          "name": "",
          "type": "tuple[]"
        }
      ],
      "stateMutability": "view",
      "type": "function"
    },
    {
      "inputs": [
        {
          "internalType": "uint256",
          "name": "id",
          "type": "uint256"
        },
        {
          "internalType": "string",
          "name": "ethAddres",
          "type": "string"
        },
        {
          "internalType": "string",
          "name": "cid",
          "type": "string"
        }
      ],
      "name": "setDescription",
      "outputs": [],
      "stateMutability": "nonpayable",
      "type": "function"
    }
  ],
  "bytecode": "0x608060405234801561001057600080fd5b50610fde806100206000396000f3fe608060405234801561001057600080fd5b50600436106100415760003560e01c80632d1814f21461004657806347dff604146100625780635404470b1461007e575b600080fd5b610060600480360381019061005b91906107b4565b61009c565b005b61007c600480360381019061007791906108f1565b61020a565b005b610086610317565b6040516100939190610b71565b60405180910390f35b60008080549050905060006040518060c0016040528083815260200188815260200187815260200186815260200185815260200184815250908060018154018082558091505060019003906000526020600020906006020160009091909190915060008201518160000155602082015181600101908161011c9190610d9f565b5060408201518160020190816101329190610d9f565b5060608201518160030190816101489190610d9f565b50608082015181600401908161015e9190610d9f565b5060a08201518160050190816101749190610d9f565b505050336001600083815260200190815260200160002060006101000a81548173ffffffffffffffffffffffffffffffffffffffff021916908373ffffffffffffffffffffffffffffffffffffffff1602179055507f7f93709acad76c1be7e836d8b0bc102dde5f4ff7004c227cd5b02c3dc5e9a05e33826040516101fa929190610ec1565b60405180910390a1505050505050565b3373ffffffffffffffffffffffffffffffffffffffff166001600085815260200190815260200160002060009054906101000a900473ffffffffffffffffffffffffffffffffffffffff1673ffffffffffffffffffffffffffffffffffffffff160361031257816000848154811061028557610284610eea565b5b906000526020600020906006020160040190816102a29190610d9f565b5080600084815481106102b8576102b7610eea565b5b906000526020600020906006020160050190816102d59190610d9f565b507f02ec4fce28d99a5fb10eb69e66885544a935e3b56b9c2f1084608dcfdbdb402f83838360405161030993929190610f63565b60405180910390a15b505050565b60606000805480602002602001604051908101604052809291908181526020016000905b8282101561065157838290600052602060002090600602016040518060c00160405290816000820154815260200160018201805461037890610bc2565b80601f01602080910402602001604051908101604052809291908181526020018280546103a490610bc2565b80156103f15780601f106103c6576101008083540402835291602001916103f1565b820191906000526020600020905b8154815290600101906020018083116103d457829003601f168201915b5050505050815260200160028201805461040a90610bc2565b80601f016020809104026020016040519081016040528092919081815260200182805461043690610bc2565b80156104835780601f1061045857610100808354040283529160200191610483565b820191906000526020600020905b81548152906001019060200180831161046657829003601f168201915b5050505050815260200160038201805461049c90610bc2565b80601f01602080910402602001604051908101604052809291908181526020018280546104c890610bc2565b80156105155780601f106104ea57610100808354040283529160200191610515565b820191906000526020600020905b8154815290600101906020018083116104f857829003601f168201915b5050505050815260200160048201805461052e90610bc2565b80601f016020809104026020016040519081016040528092919081815260200182805461055a90610bc2565b80156105a75780601f1061057c576101008083540402835291602001916105a7565b820191906000526020600020905b81548152906001019060200180831161058a57829003601f168201915b505050505081526020016005820180546105c090610bc2565b80601f01602080910402602001604051908101604052809291908181526020018280546105ec90610bc2565b80156106395780601f1061060e57610100808354040283529160200191610639565b820191906000526020600020905b81548152906001019060200180831161061c57829003601f168201915b5050505050815250508152602001906001019061033b565b50505050905090565b6000604051905090565b600080fd5b600080fd5b600080fd5b600080fd5b6000601f19601f8301169050919050565b7f4e487b7100000000000000000000000000000000000000000000000000000000600052604160045260246000fd5b6106c182610678565b810181811067ffffffffffffffff821117156106e0576106df610689565b5b80604052505050565b60006106f361065a565b90506106ff82826106b8565b919050565b600067ffffffffffffffff82111561071f5761071e610689565b5b61072882610678565b9050602081019050919050565b82818337600083830152505050565b600061075761075284610704565b6106e9565b90508281526020810184848401111561077357610772610673565b5b61077e848285610735565b509392505050565b600082601f83011261079b5761079a61066e565b5b81356107ab848260208601610744565b91505092915050565b600080600080600060a086880312156107d0576107cf610664565b5b600086013567ffffffffffffffff8111156107ee576107ed610669565b5b6107fa88828901610786565b955050602086013567ffffffffffffffff81111561081b5761081a610669565b5b61082788828901610786565b945050604086013567ffffffffffffffff81111561084857610847610669565b5b61085488828901610786565b935050606086013567ffffffffffffffff81111561087557610874610669565b5b61088188828901610786565b925050608086013567ffffffffffffffff8111156108a2576108a1610669565b5b6108ae88828901610786565b9150509295509295909350565b6000819050919050565b6108ce816108bb565b81146108d957600080fd5b50565b6000813590506108eb816108c5565b92915050565b60008060006060848603121561090a57610909610664565b5b6000610918868287016108dc565b935050602084013567ffffffffffffffff81111561093957610938610669565b5b61094586828701610786565b925050604084013567ffffffffffffffff81111561096657610965610669565b5b61097286828701610786565b9150509250925092565b600081519050919050565b600082825260208201905092915050565b6000819050602082019050919050565b6109b1816108bb565b82525050565b600081519050919050565b600082825260208201905092915050565b60005b838110156109f15780820151818401526020810190506109d6565b60008484015250505050565b6000610a08826109b7565b610a1281856109c2565b9350610a228185602086016109d3565b610a2b81610678565b840191505092915050565b600060c083016000830151610a4e60008601826109a8565b5060208301518482036020860152610a6682826109fd565b91505060408301518482036040860152610a8082826109fd565b91505060608301518482036060860152610a9a82826109fd565b91505060808301518482036080860152610ab482826109fd565b91505060a083015184820360a0860152610ace82826109fd565b9150508091505092915050565b6000610ae78383610a36565b905092915050565b6000602082019050919050565b6000610b078261097c565b610b118185610987565b935083602082028501610b2385610998565b8060005b85811015610b5f5784840389528151610b408582610adb565b9450610b4b83610aef565b925060208a01995050600181019050610b27565b50829750879550505050505092915050565b60006020820190508181036000830152610b8b8184610afc565b905092915050565b7f4e487b7100000000000000000000000000000000000000000000000000000000600052602260045260246000fd5b60006002820490506001821680610bda57607f821691505b602082108103610bed57610bec610b93565b5b50919050565b60008190508160005260206000209050919050565b60006020601f8301049050919050565b600082821b905092915050565b600060088302610c557fffffffffffffffffffffffffffffffffffffffffffffffffffffffffffffffff82610c18565b610c5f8683610c18565b95508019841693508086168417925050509392505050565b6000819050919050565b6000610c9c610c97610c92846108bb565b610c77565b6108bb565b9050919050565b6000819050919050565b610cb683610c81565b610cca610cc282610ca3565b848454610c25565b825550505050565b600090565b610cdf610cd2565b610cea818484610cad565b505050565b5b81811015610d0e57610d03600082610cd7565b600181019050610cf0565b5050565b601f821115610d5357610d2481610bf3565b610d2d84610c08565b81016020851015610d3c578190505b610d50610d4885610c08565b830182610cef565b50505b505050565b600082821c905092915050565b6000610d7660001984600802610d58565b1980831691505092915050565b6000610d8f8383610d65565b9150826002028217905092915050565b610da8826109b7565b67ffffffffffffffff811115610dc157610dc0610689565b5b610dcb8254610bc2565b610dd6828285610d12565b600060209050601f831160018114610e095760008415610df7578287015190505b610e018582610d83565b865550610e69565b601f198416610e1786610bf3565b60005b82811015610e3f57848901518255600182019150602085019450602081019050610e1a565b86831015610e5c5784890151610e58601f891682610d65565b8355505b6001600288020188555050505b505050505050565b600073ffffffffffffffffffffffffffffffffffffffff82169050919050565b6000610e9c82610e71565b9050919050565b610eac81610e91565b82525050565b610ebb816108bb565b82525050565b6000604082019050610ed66000830185610ea3565b610ee36020830184610eb2565b9392505050565b7f4e487b7100000000000000000000000000000000000000000000000000000000600052603260045260246000fd5b600082825260208201905092915050565b6000610f35826109b7565b610f3f8185610f19565b9350610f4f8185602086016109d3565b610f5881610678565b840191505092915050565b6000606082019050610f786000830186610eb2565b8181036020830152610f8a8185610f2a565b90508181036040830152610f9e8184610f2a565b905094935050505056fea2646970667358221220f840a2f02960077cd8af88b803802205954f8d58ce73022b9ab96954485ab53064736f6c63430008110033",
  "linkReferences": {},
  "deployedLinkReferences": {}
}